{
  "_format": "hh-sol-artifact-1",
  "contractName": "Auth",
  "sourceName": "contracts/Auth.sol",
  "abi": [
    {
      "inputs": [],
      "stateMutability": "nonpayable",
      "type": "constructor"
    },
    {
      "anonymous": false,
      "inputs": [
        {
          "indexed": true,
          "internalType": "address",
          "name": "user",
          "type": "address"
        }
      ],
      "name": "PasswordUpdated",
      "type": "event"
    },
    {
      "anonymous": false,
      "inputs": [
        {
          "indexed": true,
          "internalType": "address",
          "name": "user",
          "type": "address"
        },
        {
          "indexed": false,
          "internalType": "enum Auth.Role",
          "name": "newRole",
          "type": "uint8"
        }
      ],
      "name": "RoleChanged",
      "type": "event"
    },
    {
      "anonymous": false,
      "inputs": [
        {
          "indexed": true,
          "internalType": "address",
          "name": "user",
          "type": "address"
        }
      ],
      "name": "RoleRevoked",
      "type": "event"
    },
    {
      "anonymous": false,
      "inputs": [
        {
          "indexed": true,
          "internalType": "address",
          "name": "user",
          "type": "address"
        }
      ],
      "name": "UserLoggedIn",
      "type": "event"
    },
    {
      "anonymous": false,
      "inputs": [
        {
          "indexed": true,
          "internalType": "address",
          "name": "user",
          "type": "address"
        },
        {
          "indexed": false,
          "internalType": "enum Auth.Role",
          "name": "role",
          "type": "uint8"
        }
      ],
      "name": "UserRegistered",
      "type": "event"
    },
    {
      "anonymous": false,
      "inputs": [
        {
          "indexed": true,
          "internalType": "address",
          "name": "user",
          "type": "address"
        }
      ],
      "name": "UserRemoved",
      "type": "event"
    },
    {
      "inputs": [
        {
          "internalType": "address",
          "name": "userAddress",
          "type": "address"
        }
      ],
      "name": "assignAdmin",
      "outputs": [],
      "stateMutability": "nonpayable",
      "type": "function"
    },
    {
      "inputs": [
        {
          "internalType": "string",
          "name": "password",
          "type": "string"
        }
      ],
      "name": "attemptLogin",
      "outputs": [
        {
          "internalType": "bool",
          "name": "",
          "type": "bool"
        }
      ],
      "stateMutability": "nonpayable",
      "type": "function"
    },
    {
      "inputs": [],
      "name": "contractOwner",
      "outputs": [
        {
          "internalType": "address",
          "name": "",
          "type": "address"
        }
      ],
      "stateMutability": "view",
      "type": "function"
    },
    {
      "inputs": [
        {
          "internalType": "address",
          "name": "userAddress",
          "type": "address"
        }
      ],
      "name": "deleteUser",
      "outputs": [],
      "stateMutability": "nonpayable",
      "type": "function"
    },
    {
      "inputs": [
        {
          "internalType": "address",
          "name": "userAddress",
          "type": "address"
        }
      ],
      "name": "getUserDetails",
      "outputs": [
        {
          "internalType": "address",
          "name": "",
          "type": "address"
        },
        {
          "internalType": "string",
          "name": "",
          "type": "string"
        },
        {
          "internalType": "string",
          "name": "",
          "type": "string"
        }
      ],
      "stateMutability": "view",
      "type": "function"
    },
    {
      "inputs": [],
      "name": "getUserRole",
      "outputs": [
        {
          "internalType": "string",
          "name": "",
          "type": "string"
        }
      ],
      "stateMutability": "view",
      "type": "function"
    },
    {
      "inputs": [
        {
          "internalType": "string",
          "name": "password",
          "type": "string"
        }
      ],
      "name": "registerUser",
      "outputs": [],
      "stateMutability": "nonpayable",
      "type": "function"
    },
    {
      "inputs": [
        {
          "internalType": "address",
          "name": "userAddress",
          "type": "address"
        }
      ],
      "name": "revokeAdminRole",
      "outputs": [],
      "stateMutability": "nonpayable",
      "type": "function"
    },
    {
      "inputs": [
        {
          "internalType": "string",
          "name": "oldPassword",
          "type": "string"
        },
        {
          "internalType": "string",
          "name": "newPassword",
          "type": "string"
        }
      ],
      "name": "updatePassword",
      "outputs": [],
      "stateMutability": "nonpayable",
      "type": "function"
    }
  ],
  "bytecode": "0x608060405234801561001057600080fd5b5033600160006101000a81548173ffffffffffffffffffffffffffffffffffffffff021916908373ffffffffffffffffffffffffffffffffffffffff1602179055506000610063336101f560201b60201c565b905060405180608001604052803373ffffffffffffffffffffffffffffffffffffffff1681526020018260405160200161009d91906102ab565b6040516020818303038152906040528051906020012081526020018281526020016001808111156100d1576100d06102d1565b5b8152506000803373ffffffffffffffffffffffffffffffffffffffff1673ffffffffffffffffffffffffffffffffffffffff16815260200190815260200160002060008201518160000160006101000a81548173ffffffffffffffffffffffffffffffffffffffff021916908373ffffffffffffffffffffffffffffffffffffffff160217905550602082015181600101556040820151816002015560608201518160030160006101000a81548160ff02191690836001811115610198576101976102d1565b5b02179055509050503373ffffffffffffffffffffffffffffffffffffffff167f8e18574f8a7333e6a87112742a55853a643e2f0550f4e1a3a2c3f1bb2994441d60016040516101e79190610348565b60405180910390a250610445565b600042824460405160200161020c93929190610408565b604051602081830303815290604052805190602001209050919050565b600081905092915050565b7f61646d696e313233000000000000000000000000000000000000000000000000600082015250565b600061026a600883610229565b915061027582610234565b600882019050919050565b6000819050919050565b6000819050919050565b6102a56102a082610280565b61028a565b82525050565b60006102b68261025d565b91506102c28284610294565b60208201915081905092915050565b7f4e487b7100000000000000000000000000000000000000000000000000000000600052602160045260246000fd5b60028110610311576103106102d1565b5b50565b600081905061032282610300565b919050565b600061033282610314565b9050919050565b61034281610327565b82525050565b600060208201905061035d6000830184610339565b92915050565b6000819050919050565b6000819050919050565b61038861038382610363565b61036d565b82525050565b600073ffffffffffffffffffffffffffffffffffffffff82169050919050565b60006103b98261038e565b9050919050565b60008160601b9050919050565b60006103d8826103c0565b9050919050565b60006103ea826103cd565b9050919050565b6104026103fd826103ae565b6103df565b82525050565b60006104148286610377565b60208201915061042482856103f1565b6014820191506104348284610377565b602082019150819050949350505050565b612282806104546000396000f3fe608060405234801561001057600080fd5b50600436106100935760003560e01c80639a19c7b0116100665780639a19c7b01461011c578063bf04a10d14610138578063cc3d967b14610156578063cdfbb35114610188578063ce606ee0146101a457610093565b8063247ee36e146100985780633da7d2ed146100c85780635c60f226146100e4578063704f1b9414610100575b600080fd5b6100b260048036038101906100ad919061178c565b6101c2565b6040516100bf91906117f0565b60405180910390f35b6100e260048036038101906100dd9190611869565b6103d0565b005b6100fe60048036038101906100f99190611869565b6105ec565b005b61011a6004803603810190610115919061178c565b61094c565b005b61013660048036038101906101319190611869565b610bff565b005b610140610e83565b60405161014d9190611915565b60405180910390f35b610170600480360381019061016b9190611869565b611045565b60405161017f93929190611946565b60405180910390f35b6101a2600480360381019061019d919061198b565b611293565b005b6101ac6115d8565b6040516101b99190611a03565b60405180910390f35b60008073ffffffffffffffffffffffffffffffffffffffff166000803373ffffffffffffffffffffffffffffffffffffffff1673ffffffffffffffffffffffffffffffffffffffff16815260200190815260200160002060000160009054906101000a900473ffffffffffffffffffffffffffffffffffffffff1673ffffffffffffffffffffffffffffffffffffffff1603610293576040517f08c379a000000000000000000000000000000000000000000000000000000000815260040161028a90611a6a565b60405180910390fd5b816000803373ffffffffffffffffffffffffffffffffffffffff1673ffffffffffffffffffffffffffffffffffffffff168152602001908152602001600020600201546040516020016102e7929190611af1565b604051602081830303815290604052805190602001206000803373ffffffffffffffffffffffffffffffffffffffff1673ffffffffffffffffffffffffffffffffffffffff1681526020019081526020016000206001015403610390573373ffffffffffffffffffffffffffffffffffffffff167f8d15fde878cff665868ed7579eb5081db6508d4249df61dcdd7699a5301d987460405160405180910390a2600190506103cb565b6040517f08c379a00000000000000000000000000000000000000000000000000000000081526004016103c290611b65565b60405180910390fd5b919050565b600160009054906101000a900473ffffffffffffffffffffffffffffffffffffffff1673ffffffffffffffffffffffffffffffffffffffff163373ffffffffffffffffffffffffffffffffffffffff1614610460576040517f08c379a000000000000000000000000000000000000000000000000000000000815260040161045790611bf7565b60405180910390fd5b600073ffffffffffffffffffffffffffffffffffffffff166000808373ffffffffffffffffffffffffffffffffffffffff1673ffffffffffffffffffffffffffffffffffffffff16815260200190815260200160002060000160009054906101000a900473ffffffffffffffffffffffffffffffffffffffff1673ffffffffffffffffffffffffffffffffffffffff1603610530576040517f08c379a000000000000000000000000000000000000000000000000000000000815260040161052790611c63565b60405180910390fd5b60016000808373ffffffffffffffffffffffffffffffffffffffff1673ffffffffffffffffffffffffffffffffffffffff16815260200190815260200160002060030160006101000a81548160ff0219169083600181111561059557610594611c83565b5b02179055508073ffffffffffffffffffffffffffffffffffffffff167f3cdc6ed770815602e888513518c6a3c86c2238544ea0e0086d6647e30b387afe60016040516105e19190611cfa565b60405180910390a250565b6001808111156105ff576105fe611c83565b5b6000803373ffffffffffffffffffffffffffffffffffffffff1673ffffffffffffffffffffffffffffffffffffffff16815260200190815260200160002060030160009054906101000a900460ff1660018111156106605761065f611c83565b5b146106a0576040517f08c379a000000000000000000000000000000000000000000000000000000000815260040161069790611d61565b60405180910390fd5b600073ffffffffffffffffffffffffffffffffffffffff166000808373ffffffffffffffffffffffffffffffffffffffff1673ffffffffffffffffffffffffffffffffffffffff16815260200190815260200160002060000160009054906101000a900473ffffffffffffffffffffffffffffffffffffffff1673ffffffffffffffffffffffffffffffffffffffff1603610770576040517f08c379a000000000000000000000000000000000000000000000000000000000815260040161076790611c63565b60405180910390fd5b60018081111561078357610782611c83565b5b6000808373ffffffffffffffffffffffffffffffffffffffff1673ffffffffffffffffffffffffffffffffffffffff16815260200190815260200160002060030160009054906101000a900460ff1660018111156107e4576107e3611c83565b5b0361087a57600160009054906101000a900473ffffffffffffffffffffffffffffffffffffffff1673ffffffffffffffffffffffffffffffffffffffff163373ffffffffffffffffffffffffffffffffffffffff1614610879576040517f08c379a000000000000000000000000000000000000000000000000000000000815260040161087090611df3565b60405180910390fd5b5b6000808273ffffffffffffffffffffffffffffffffffffffff1673ffffffffffffffffffffffffffffffffffffffff168152602001908152602001600020600080820160006101000a81549073ffffffffffffffffffffffffffffffffffffffff0219169055600182016000905560028201600090556003820160006101000a81549060ff021916905550508073ffffffffffffffffffffffffffffffffffffffff167fe9dce8c992623ce791725b21e857e33248d1f190a25b5168313420eebdaae99d60405160405180910390a250565b600073ffffffffffffffffffffffffffffffffffffffff166000803373ffffffffffffffffffffffffffffffffffffffff1673ffffffffffffffffffffffffffffffffffffffff16815260200190815260200160002060000160009054906101000a900473ffffffffffffffffffffffffffffffffffffffff1673ffffffffffffffffffffffffffffffffffffffff1614610a1c576040517f08c379a0000000000000000000000000000000000000000000000000000000008152600401610a1390611e5f565b60405180910390fd5b600681511015610a61576040517f08c379a0000000000000000000000000000000000000000000000000000000008152600401610a5890611ef1565b60405180910390fd5b6000610a6c336115fe565b905060405180608001604052803373ffffffffffffffffffffffffffffffffffffffff1681526020018383604051602001610aa8929190611af1565b60405160208183030381529060405280519060200120815260200182815260200160006001811115610add57610adc611c83565b5b8152506000803373ffffffffffffffffffffffffffffffffffffffff1673ffffffffffffffffffffffffffffffffffffffff16815260200190815260200160002060008201518160000160006101000a81548173ffffffffffffffffffffffffffffffffffffffff021916908373ffffffffffffffffffffffffffffffffffffffff160217905550602082015181600101556040820151816002015560608201518160030160006101000a81548160ff02191690836001811115610ba457610ba3611c83565b5b02179055509050503373ffffffffffffffffffffffffffffffffffffffff167f8e18574f8a7333e6a87112742a55853a643e2f0550f4e1a3a2c3f1bb2994441d6000604051610bf39190611cfa565b60405180910390a25050565b600160009054906101000a900473ffffffffffffffffffffffffffffffffffffffff1673ffffffffffffffffffffffffffffffffffffffff163373ffffffffffffffffffffffffffffffffffffffff1614610c8f576040517f08c379a0000000000000000000000000000000000000000000000000000000008152600401610c8690611f83565b60405180910390fd5b600180811115610ca257610ca1611c83565b5b6000808373ffffffffffffffffffffffffffffffffffffffff1673ffffffffffffffffffffffffffffffffffffffff16815260200190815260200160002060030160009054906101000a900460ff166001811115610d0357610d02611c83565b5b14610d43576040517f08c379a0000000000000000000000000000000000000000000000000000000008152600401610d3a90611fef565b60405180910390fd5b600160009054906101000a900473ffffffffffffffffffffffffffffffffffffffff1673ffffffffffffffffffffffffffffffffffffffff168173ffffffffffffffffffffffffffffffffffffffff1603610dd3576040517f08c379a0000000000000000000000000000000000000000000000000000000008152600401610dca90612081565b60405180910390fd5b60008060008373ffffffffffffffffffffffffffffffffffffffff1673ffffffffffffffffffffffffffffffffffffffff16815260200190815260200160002060030160006101000a81548160ff02191690836001811115610e3857610e37611c83565b5b02179055508073ffffffffffffffffffffffffffffffffffffffff167f6107a4a5447a4208ba14e3ec240bccf0a93828124ccf501af04601031070b18360405160405180910390a250565b6060600073ffffffffffffffffffffffffffffffffffffffff166000803373ffffffffffffffffffffffffffffffffffffffff1673ffffffffffffffffffffffffffffffffffffffff16815260200190815260200160002060000160009054906101000a900473ffffffffffffffffffffffffffffffffffffffff1673ffffffffffffffffffffffffffffffffffffffff1603610f55576040517f08c379a0000000000000000000000000000000000000000000000000000000008152600401610f4c90611a6a565b60405180910390fd5b600180811115610f6857610f67611c83565b5b6000803373ffffffffffffffffffffffffffffffffffffffff1673ffffffffffffffffffffffffffffffffffffffff16815260200190815260200160002060030160009054906101000a900460ff166001811115610fc957610fc8611c83565b5b14611009576040518060400160405280600481526020017f5573657200000000000000000000000000000000000000000000000000000000815250611040565b6040518060400160405280600581526020017f41646d696e0000000000000000000000000000000000000000000000000000008152505b905090565b6000606080600073ffffffffffffffffffffffffffffffffffffffff166000808673ffffffffffffffffffffffffffffffffffffffff1673ffffffffffffffffffffffffffffffffffffffff16815260200190815260200160002060000160009054906101000a900473ffffffffffffffffffffffffffffffffffffffff1673ffffffffffffffffffffffffffffffffffffffff160361111a576040517f08c379a0000000000000000000000000000000000000000000000000000000008152600401611111906120ed565b60405180910390fd5b600060018081111561112f5761112e611c83565b5b6000808773ffffffffffffffffffffffffffffffffffffffff1673ffffffffffffffffffffffffffffffffffffffff16815260200190815260200160002060030160009054906101000a900460ff1660018111156111905761118f611c83565b5b146111d0576040518060400160405280600481526020017f5573657200000000000000000000000000000000000000000000000000000000815250611207565b6040518060400160405280600581526020017f41646d696e0000000000000000000000000000000000000000000000000000008152505b90506000808673ffffffffffffffffffffffffffffffffffffffff1673ffffffffffffffffffffffffffffffffffffffff16815260200190815260200160002060000160009054906101000a900473ffffffffffffffffffffffffffffffffffffffff168160405180606001604052806023815260200161222a60239139935093509350509193909250565b600073ffffffffffffffffffffffffffffffffffffffff166000803373ffffffffffffffffffffffffffffffffffffffff1673ffffffffffffffffffffffffffffffffffffffff16815260200190815260200160002060000160009054906101000a900473ffffffffffffffffffffffffffffffffffffffff1673ffffffffffffffffffffffffffffffffffffffff1603611363576040517f08c379a000000000000000000000000000000000000000000000000000000000815260040161135a90611a6a565b60405180910390fd5b6000803373ffffffffffffffffffffffffffffffffffffffff1673ffffffffffffffffffffffffffffffffffffffff16815260200190815260200160002060010154826000803373ffffffffffffffffffffffffffffffffffffffff1673ffffffffffffffffffffffffffffffffffffffff168152602001908152602001600020600201546040516020016113f9929190611af1565b604051602081830303815290604052805190602001201461144f576040517f08c379a000000000000000000000000000000000000000000000000000000000815260040161144690612159565b60405180910390fd5b600681511015611494576040517f08c379a000000000000000000000000000000000000000000000000000000000815260040161148b90611ef1565b60405180910390fd5b61149d336115fe565b6000803373ffffffffffffffffffffffffffffffffffffffff1673ffffffffffffffffffffffffffffffffffffffff16815260200190815260200160002060020181905550806000803373ffffffffffffffffffffffffffffffffffffffff1673ffffffffffffffffffffffffffffffffffffffff16815260200190815260200160002060020154604051602001611536929190611af1565b604051602081830303815290604052805190602001206000803373ffffffffffffffffffffffffffffffffffffffff1673ffffffffffffffffffffffffffffffffffffffff168152602001908152602001600020600101819055503373ffffffffffffffffffffffffffffffffffffffff167f59d5e5502067ddbcd17d342059dce1fd469d88df519507513e7b392a068a936160405160405180910390a25050565b600160009054906101000a900473ffffffffffffffffffffffffffffffffffffffff1681565b6000428244604051602001611615939291906121ec565b604051602081830303815290604052805190602001209050919050565b6000604051905090565b600080fd5b600080fd5b600080fd5b600080fd5b6000601f19601f8301169050919050565b7f4e487b7100000000000000000000000000000000000000000000000000000000600052604160045260246000fd5b61169982611650565b810181811067ffffffffffffffff821117156116b8576116b7611661565b5b80604052505050565b60006116cb611632565b90506116d78282611690565b919050565b600067ffffffffffffffff8211156116f7576116f6611661565b5b61170082611650565b9050602081019050919050565b82818337600083830152505050565b600061172f61172a846116dc565b6116c1565b90508281526020810184848401111561174b5761174a61164b565b5b61175684828561170d565b509392505050565b600082601f83011261177357611772611646565b5b813561178384826020860161171c565b91505092915050565b6000602082840312156117a2576117a161163c565b5b600082013567ffffffffffffffff8111156117c0576117bf611641565b5b6117cc8482850161175e565b91505092915050565b60008115159050919050565b6117ea816117d5565b82525050565b600060208201905061180560008301846117e1565b92915050565b600073ffffffffffffffffffffffffffffffffffffffff82169050919050565b60006118368261180b565b9050919050565b6118468161182b565b811461185157600080fd5b50565b6000813590506118638161183d565b92915050565b60006020828403121561187f5761187e61163c565b5b600061188d84828501611854565b91505092915050565b600081519050919050565b600082825260208201905092915050565b60005b838110156118d05780820151818401526020810190506118b5565b60008484015250505050565b60006118e782611896565b6118f181856118a1565b93506119018185602086016118b2565b61190a81611650565b840191505092915050565b6000602082019050818103600083015261192f81846118dc565b905092915050565b6119408161182b565b82525050565b600060608201905061195b6000830186611937565b818103602083015261196d81856118dc565b9050818103604083015261198181846118dc565b9050949350505050565b600080604083850312156119a2576119a161163c565b5b600083013567ffffffffffffffff8111156119c0576119bf611641565b5b6119cc8582860161175e565b925050602083013567ffffffffffffffff8111156119ed576119ec611641565b5b6119f98582860161175e565b9150509250929050565b6000602082019050611a186000830184611937565b92915050565b7f55736572206e6f74207265676973746572656400000000000000000000000000600082015250565b6000611a546013836118a1565b9150611a5f82611a1e565b602082019050919050565b60006020820190508181036000830152611a8381611a47565b9050919050565b600081905092915050565b6000611aa082611896565b611aaa8185611a8a565b9350611aba8185602086016118b2565b80840191505092915050565b6000819050919050565b6000819050919050565b611aeb611ae682611ac6565b611ad0565b82525050565b6000611afd8285611a95565b9150611b098284611ada565b6020820191508190509392505050565b7f496e636f72726563742070617373776f72640000000000000000000000000000600082015250565b6000611b4f6012836118a1565b9150611b5a82611b19565b602082019050919050565b60006020820190508181036000830152611b7e81611b42565b9050919050565b7f4f6e6c7920636f6e7472616374206f776e65722063616e2061737369676e204160008201527f646d696e20726f6c650000000000000000000000000000000000000000000000602082015250565b6000611be16029836118a1565b9150611bec82611b85565b604082019050919050565b60006020820190508181036000830152611c1081611bd4565b9050919050565b7f5573657220646f6573206e6f7420657869737400000000000000000000000000600082015250565b6000611c4d6013836118a1565b9150611c5882611c17565b602082019050919050565b60006020820190508181036000830152611c7c81611c40565b9050919050565b7f4e487b7100000000000000000000000000000000000000000000000000000000600052602160045260246000fd5b60028110611cc357611cc2611c83565b5b50565b6000819050611cd482611cb2565b919050565b6000611ce482611cc6565b9050919050565b611cf481611cd9565b82525050565b6000602082019050611d0f6000830184611ceb565b92915050565b7f4163636573732064656e6965643a2041646d696e73206f6e6c79000000000000600082015250565b6000611d4b601a836118a1565b9150611d5682611d15565b602082019050919050565b60006020820190508181036000830152611d7a81611d3e565b9050919050565b7f4f6e6c7920636f6e7472616374206f776e65722063616e2064656c657465204160008201527f646d696e206163636f756e747300000000000000000000000000000000000000602082015250565b6000611ddd602d836118a1565b9150611de882611d81565b604082019050919050565b60006020820190508181036000830152611e0c81611dd0565b9050919050565b7f5573657220616c72656164792072656769737465726564000000000000000000600082015250565b6000611e496017836118a1565b9150611e5482611e13565b602082019050919050565b60006020820190508181036000830152611e7881611e3c565b9050919050565b7f50617373776f7264206d757374206265206174206c656173742036206368617260008201527f6163746572730000000000000000000000000000000000000000000000000000602082015250565b6000611edb6026836118a1565b9150611ee682611e7f565b604082019050919050565b60006020820190508181036000830152611f0a81611ece565b9050919050565b7f4f6e6c7920636f6e7472616374206f776e65722063616e207265766f6b65204160008201527f646d696e20726f6c650000000000000000000000000000000000000000000000602082015250565b6000611f6d6029836118a1565b9150611f7882611f11565b604082019050919050565b60006020820190508181036000830152611f9c81611f60565b9050919050565b7f55736572206973206e6f7420616e2041646d696e000000000000000000000000600082015250565b6000611fd96014836118a1565b9150611fe482611fa3565b602082019050919050565b6000602082019050818103600083015261200881611fcc565b9050919050565b7f43616e6e6f74207265766f6b6520636f6e7472616374206f776e65722773207260008201527f6f6c650000000000000000000000000000000000000000000000000000000000602082015250565b600061206b6023836118a1565b91506120768261200f565b604082019050919050565b6000602082019050818103600083015261209a8161205e565b9050919050565b7f55736572206e6f7420666f756e64000000000000000000000000000000000000600082015250565b60006120d7600e836118a1565b91506120e2826120a1565b602082019050919050565b60006020820190508181036000830152612106816120ca565b9050919050565b7f496e636f7272656374206f6c642070617373776f726400000000000000000000600082015250565b60006121436016836118a1565b915061214e8261210d565b602082019050919050565b6000602082019050818103600083015261217281612136565b9050919050565b6000819050919050565b6000819050919050565b61219e61219982612179565b612183565b82525050565b60008160601b9050919050565b60006121bc826121a4565b9050919050565b60006121ce826121b1565b9050919050565b6121e66121e18261182b565b6121c3565b82525050565b60006121f8828661218d565b60208201915061220882856121d5565b601482019150612218828461218d565b60208201915081905094935050505056fe557365722064657461696c7320726574726965766564207375636365737366756c6c79a2646970667358221220294909e3d0de560bce77890fef378a9c0e9a23b09bd860285733e808abe9f71764736f6c634300081c0033",
  "linkReferences": {},
  "deployedLinkReferences": {}
}